:100000000C9462000C9481000C9481000C9481008B
:100010000C9481000C9481000C9481000C9481005C
:100020000C9481000C9481000C9481000C9481004C
:100030000C9481000C94FF000C9481000C948100BE
:100040000C9481000C9481000C9481000C9481002C
:100050000C9481000C9481000C9481000C9481001C
:100060000C9481000C9481000C9481000C9481000C
:100070000C9481000C9481000C9481000C948100FC
:100080000C9481000C9481000C948100F903050408
:1000900018042B043E045104640477048A049D046C
:1000A000B004C204E504D40413051E051E051E0594
:1000B0001E051E051E051E051E051E051E051E0528
:1000C0001E05180511241FBECFEFD0E4DEBFCDBF43
:1000D00011E0A0E0B1E0EEE4F2E100E00BBF02C00D
:1000E00007900D92A831B107D9F721E0A8E1B1E05E
:1000F00001C01D92A534B207E1F70E9407060C94D7
:1001000025090C940000CF93DF9300D000D0CDB729
:10011000DEB769837A838B839C8389819A81AB81E3
:10012000BC818093000190930101A0930201B093E0
:1001300003018091000190910101A0910201B09111
:1001400003018093190190931A01A0931B01B093AE
:100150001C0100000F900F900F900F90DF91CF9136
:100160000895CF93DF93CDB7DEB781E890E02BE021
:10017000FC01208388E890E02DE730E0FC0131832A
:1001800020838FE690E022E0FC01208384E890E069
:10019000FC01118210828091000190910101A091D7
:1001A0000201B09103018093190190931A01A09369
:1001B0001B01B0931C018FE590E02FE530E0F901C1
:1001C00020812068FC0120830000DF91CF910895F9
:1001D000CF93DF93CDB7DEB781E890E0FC011082CA
:1001E0000000DF91CF910895CF93DF93CDB7DEB7B5
:1001F00081E0809318010000DF91CF9108951F9254
:100200000F9200905F000F92112400905B000F92FC
:100210002F933F934F935F936F937F938F939F930E
:10022000AF93BF93EF93FF93CF93DF93CDB7DEB739
:100230008091190190911A01A0911B01B0911C01AC
:100240000197A109B1098093190190931A01A09314
:100250001B01B0931C018091190190911A01A0918A
:100260001B01B0911C01892B8A2B8B2B91F40E94CE
:10027000F4008091000190910101A0910201B091E0
:1002800003018093190190931A01A0931B01B0936D
:100290001C010000DF91CF91FF91EF91BF91AF91D1
:1002A0009F918F917F916F915F914F913F912F918E
:1002B0000F9000925B000F9000925F000F901F90D4
:1002C0001895CF93DF9300D01F92CDB7DEB7898307
:1002D0006A834B838B81882371F08A81282F30E0D9
:1002E00081E090E002C0880F991F2A95E2F7982FCD
:1002F0008981892B0EC08A81282F30E081E090E02F
:1003000002C0880F991F2A95E2F7982F909589814E
:1003100089230F900F900F90DF91CF910895CF9385
:10032000DF9300D0CDB7DEB789836A838A81282F17
:1003300030E081E090E002C0880F991F2A95E2F733
:10034000982F898189230F900F90DF91CF91089585
:100350000F931F93CF93DF93CDB7DEB708E210E082
:1003600040E064E08FEF0E946101F80180830000AB
:1003700086E290E0FC018081809560E00E948F0120
:10038000882311F081E3D3C086E290E0FC018081F4
:10039000809561E00E948F01882311F084E3C7C03B
:1003A00086E290E0FC018081809562E00E948F01EE
:1003B000882311F087E3BBC086E290E0FC018081D6
:1003C000809563E00E948F01882311F08AE2AFC01C
:1003D00008E210E040E065E08FEF0E946101F80163
:1003E0008083000086E290E0FC018081809560E0DF
:1003F0000E948F01882311F082E399C086E290E089
:10040000FC018081809561E00E948F01882311F0BA
:1004100085E38DC086E290E0FC018081809562E0FA
:100420000E948F01882311F088E381C086E290E06A
:10043000FC018081809563E00E948F01882311F088
:1004400080E375C008E210E040E066E08FEF0E94B4
:100450006101F8018083000086E290E0FC01808168
:10046000809560E00E948F01882311F083E35FC0D4
:1004700086E290E0FC018081809561E00E948F011E
:10048000882311F086E353C086E290E0FC0180816E
:10049000809562E00E948F01882311F089E347C0B4
:1004A00086E290E0FC018081809563E00E948F01EC
:1004B000882311F083E23BC008E210E040E067E0EF
:1004C0008FEF0E946101F8018083000086E290E0D6
:1004D000FC018081809560E00E948F01882311F0EB
:1004E00081E425C086E290E0FC018081809561E096
:1004F0000E948F01882311F082E419C086E290E007
:10050000FC018081809562E00E948F01882311F0B8
:1005100083E40DC086E290E0FC018081809563E079
:100520000E948F01882311F084E401C080E0DF91F4
:10053000CF911F910F910895CF93DF93CDB7DEB781
:100540002C970FB6F894DEBF0FBECDBF6D837E83B0
:100550008F83988729873A874B875C878D819E8117
:10056000AF81B88529853A854B855C85BC01CD0175
:100570000E946607DC01CB0189839A83AB83BC832D
:1005800089819A81AB81BC81892B8A2B8B2B29F4A1
:1005900089859A85AB85BC8511C089859A85AB858F
:1005A000BC858D839E83AF83B88789819A81AB8117
:1005B000BC8189879A87AB87BC87D0CFBC01CD012E
:1005C0002C960FB6F894DEBF0FBECDBFDF91CF9152
:1005D0000895CF93DF9300D01F92CDB7DEB7898304
:1005E0007B836A8389818A3031F48A819B81BC0153
:1005F0008DE00E94E90280EC90E0FC018081882F70
:1006000090E080729927892BB1F386EC90E02981E4
:10061000FC01208380E090E00F900F900F90DF911D
:10062000CF9108950F931F93CF93DF9300D000D005
:10063000CDB7DEB769837A838B839C838091200159
:1006400090912101A0912201B09123019C01AD0163
:1006500069817A818B819C810E949107882309F4AA
:1006600077C020E030E0A90169817A818B819C818B
:100670000E949107882351F481E990E021E930E05C
:10068000F90120812870FC01208309C081E990E0F4
:1006900021E930E0F90120812360FC01208328E575
:1006A00039E344E75FE369817A818B819C810E9411
:1006B0009107882344F488E990E02FEF3FEFFC0195
:1006C0003183208334C020E034E244EF56E4698172
:1006D0007A818B819C810E94B308181634F488E9D2
:1006E00090E0FC011182108222C008E910E020E0B5
:1006F00030E040E053E469817A818B819C810E94E3
:10070000B808DC01CB019C01AD0160E074E284EF2C
:100710009AE40E949607DC01CB01BC01CD010E9446
:100720000808DC01CB010197F8019183808384E9FB
:1007300090E0FC011182108289819A81AB81BC8199
:100740008093200190932101A0932201B093230173
:1007500000000F900F900F900F90DF91CF911F919D
:100760000F910895CF93DF93CDB7DEB780E990E086
:1007700020E4FC01208381E990E02BE0FC01208350
:1007800060E070E0CB010E9412030000DF91CF9186
:100790000895CF93DF93CDB7DEB780E990E0FC01F9
:1007A000108281E990E0FC0110820000DF91CF917E
:1007B0000895CF93DF9300D0CDB7DEB79A838983B6
:1007C0000E94A80180931D0189819A81092E000C45
:1007D000AA0BBB0B40E050E02DE030E0841B950BF2
:1007E0002817390708F4F1C08A5B9F4FFC010C946D
:1007F000880780911D01833229F481E090E09A837B
:100800008983FDC01A821982FAC080911D01882354
:1008100029F482E090E09A838983DAC080911D01F7
:10082000833209F0D5C081E090E09A838983D0C0FB
:1008300080911D01813329F483E090E09A838983BC
:10084000C9C080911D01833209F0C4C081E090E0ED
:100850009A838983BFC080911D01882329F484E095
:1008600090E09A838983B8C080911D01833209F09A
:10087000B3C081E090E09A838983AEC080911D016E
:10088000823329F485E090E09A838983A7C0809120
:100890001D01833209F0A2C081E090E09A83898330
:1008A0009DC080911D01882329F486E090E09A8301
:1008B000898396C080911D01833209F091C081E047
:1008C00090E09A8389838CC080911D01833329F441
:1008D00087E090E09A83898385C080911D018332EF
:1008E00009F080C081E090E09A8389837BC0809189
:1008F0001D01882329F488E090E09A83898374C0DD
:1009000080911D01833209F06FC081E090E09A83ED
:1009100089836AC080911D01843329F489E090E0C5
:100920009A83898363C080911D01833209F05EC080
:1009300081E090E09A83898359C080911D018823CA
:1009400029F48AE090E09A83898352C080911D0146
:10095000833209F04DC081E090E09A83898348C0DA
:1009600080911D01853329F48BE090E09A8389837F
:1009700041C080911D018332E9F581E090E09A83C6
:10098000898338C080911D01882329F48DE090E08F
:100990009A83898331C080911D01833269F581E09A
:1009A00090E09A83898328C080911D01882321F4D7
:1009B0008DE090E09A83898383E290E0FC0180815E
:1009C0008823E4F01A82198219C01A82198217C08A
:1009D000000015C0000013C0000011C000000FC0CF
:1009E00000000DC000000BC0000009C0000007C0DF
:1009F000000005C0000003C0000001C000008981A4
:100A00009A81092E000CAA0BBB0B40E050E02DE0B0
:100A100030E0841B950B2817390780F08C5A9F4FC4
:100A2000FC010C94880785E290E0FC01108207C06D
:100A300085E290E021E0FC01208301C00000898173
:100A40009A810F900F90DF91CF910895CF93DF930C
:100A500000D0CDB7DEB79A83898389819A810097C8
:100A600019F0019779F011C083E290E0FC018081D8
:100A700088232CF081E090E09A83898309C01A8250
:100A8000198206C01A82198203C01A8219820000D4
:100A900089819A81009741F0019709F006C085E2AB
:100AA00090E0FC01108201C0000089819A810F90C2
:100AB0000F90DF91CF910895CF93DF9300D0CDB702
:100AC000DEB79A83898389819A818130910589F083
:100AD000823091051CF4892B39F047C08230910592
:100AE000F9F0039759F141C081E090E09A8389833E
:100AF0003FC080E290E0FC018081882F90E08095EB
:100B00009095807F99278038910529F482E090E0C4
:100B10009A8389832DC081E090E09A83898328C0DD
:100B200080911F018F3028F482E090E09A838983BE
:100B30001FC083E090E09A8389831AC080E290E02E
:100B4000FC018081882F90E080959095807F992787
:100B50008038910529F481E090E09A83898308C068
:100B600083E090E09A83898303C01A82198200008F
:100B700089819A818130910561F0823091051CF460
:100B8000892BE9F13DC08230910559F0039779F145
:100B900037C060E070E0CB010E94120310921F0189
:100BA0002FC080911F01853038F464EA70ED82E82F
:100BB00093E40E94120315C080911F018A3038F41B
:100BC00060E070E08CED93E40E9412030AC0809113
:100BD0001F018F3030F464EA70ED84EA93E40E94E0
:100BE000120380911F018F5F80931F0109C060E095
:100BF00070E0CB010E94120310921F0101C000009F
:100C000089819A810F900F90DF91CF9108950F9372
:100C10001F93CF93DF93CDB7DEB72B970FB6F89422
:100C2000DEBF0FBECDBF81E290E0FC01108282E208
:100C300090E02FEFFC01208384E290E02FE7FC019D
:100C4000208385E290E020EFFC01208387E290E0A2
:100C500020EFFC01208388E290E02FE0FC0120835C
:100C600086E0E2E1F1E0DE01169601900D928A95B0
:100C7000E1F783E090E09C838B838FEF8D838D8100
:100C8000809324018AE090E0A0E0B0E08093250109
:100C900090932601A0932701B0932801809125010C
:100CA00090912601A0912701B091280180932901FC
:100CB00090932A01A0932B01B0932C0189ED93E02E
:100CC00090932E0180932D018D8180932F018AE0D6
:100CD00090E0A0E0B0E08093300190933101A093C8
:100CE0003201B09333018091300190913101A09194
:100CF0003201B09133018093340190933501A09378
:100D00003601B093370186E295E0909339018093E4
:100D100038018D8180933A0188EC90E0A0E0B0E04A
:100D200080933B0190933C01A0933D01B0933E0121
:100D300080913B0190913C01A0913D01B0913E0119
:100D400080933F0190934001A0934101B0934201F1
:100D50008CE595E090934401809343016AE070E054
:100D600080E090E00E9483000E94B1000E94B203E4
:100D70001A8219829BC089819A81880F991F9E01CE
:100D80002F5F3F4F820F931F0596FC018081918159
:100D9000FC01258136814781508589819A81880FA0
:100DA000991FBE016F5F7F4F860F971F0596FC014D
:100DB00080819181FC0181819281A381B481281776
:100DC00039074A075B0709F045C089819A81880F76
:100DD000991F9E012F5F3F4F820F931F0596FC01C5
:100DE0000081118189819A81880F991F9E012F5F4F
:100DF0003F4F820F931F0596FC0180819181FC017A
:100E00002185328589819A81880F991FAE014F5FB4
:100E10005F4F840F951F0596FC0180819181FC0135
:100E20008081082E000C990BF9010995F801808347
:100E300089819A81880F991F9E012F5F3F4F820FF2
:100E4000931F0596FC0180819181FC011582168219
:100E50001782108689819A81880F991F9E012F5FC2
:100E60003F4F820F931F0596FC01208131818981BC
:100E70009A81880F991FAE014F5F5F4F840F951FB6
:100E80000596FC0180819181FC0185819681A78175
:100E9000B0850A96A11DB11DF90185839683A783AC
:100EA000B08789819A8101969A83898329813A81C1
:100EB0008B819C812817390708F45DCF0000809151
:100EC00018018823E1F31092180152CFA1E21A2EE3
:100ED000AA1BBB1BFD010DC0AA1FBB1FEE1FFF1FDE
:100EE000A217B307E407F50720F0A21BB30BE40B2E
:100EF000F50B661F771F881F991F1A9469F7609575
:100F00007095809590959B01AC01BD01CF0108952E
:100F1000EE0FFF1F0024001C0BBE0790F691E02D82
:100F200009940E943E0808F481E008950E94AA07EF
:100F30000C9479080E94720858F00E946B0840F0E7
:100F400029F45F3F29F00C94620851110C94AD080C
:100F50000C9468080E948A0868F39923B1F355231A
:100F600091F3951B550BBB27AA27621773078407BC
:100F700038F09F5F5F4F220F331F441FAA1FA9F352
:100F800035D00E2E3AF0E0E832D091505040E69540
:100F9000001CCAF72BD0FE2F29D0660F771F881FA1
:100FA000BB1F261737074807AB07B0E809F0BB0B94
:100FB000802DBF01FF2793585F4F3AF09E3F5105A8
:100FC00078F00C9462080C94AD085F3FE4F3983E0F
:100FD000D4F3869577956795B795F7959F5FC9F791
:100FE000880F911D9695879597F90895E1E0660F12
:100FF000771F881FBB1F621773078407BA0720F08B
:10100000621B730B840BBA0BEE1F88F7E0950895F3
:101010000E940F086894B1110C94AD0808950E94C5
:10102000920888F09F5798F0B92F9927B751B0F0E0
:10103000E1F0660F771F881F991F1AF0BA95C9F75C
:1010400014C0B13091F00E94AC08B1E008950C9446
:10105000AC08672F782F8827B85F39F0B93FCCF3F9
:10106000869577956795B395D9F73EF490958095D9
:10107000709561957F4F8F4F9F4F0895990F00088E
:10108000550FAA0BE0E8FEEF16161706E807F9075A
:10109000C0F012161306E407F50798F0621B730BF5
:1010A000840B950B39F40A2661F0232B242B252B76
:1010B00021F408950A2609F4A140A6958FEF811D19
:1010C000811D089597F99F6780E870E060E00895BA
:1010D0009FEF80EC089500240A9416161706180650
:1010E0000906089500240A9412161306140605062C
:1010F0000895092E0394000C11F4882352F0BB0FBD
:1011000040F4BF2B11F460FF04C06F5F7F4F8F4F1F
:101110009F4F089557FD9058440F551F59F05F3F5A
:1011200071F04795880F97FB991F61F09F3F79F009
:1011300087950895121613061406551FF2CF46958B
:10114000F1DF08C0161617061806991FF1CF86950D
:101150007105610508940895E894BB2766277727F1
:10116000CB0197F908950E943E0808F48FEF089587
:101170000E94CB080C9479080E946B0838F00E94FA
:10118000720820F0952311F00C9462080C94680802
:1011900011240C94AD080E948A0870F3959FC1F346
:1011A000950F50E0551F629FF001729FBB27F00D15
:1011B000B11D639FAA27F00DB11DAA1F649F66276A
:1011C000B00DA11D661F829F2227B00DA11D621FB9
:1011D000739FB00DA11D621F839FA00D611D221F73
:1011E000749F3327A00D611D231F849F600D211D57
:1011F000822F762F6A2F11249F5750409AF0F1F0DA
:1012000088234AF0EE0FFF1FBB1F661F771F881F42
:1012100091505040A9F79E3F510580F00C94620810
:101220000C94AD085F3FE4F3983ED4F38695779530
:101230006795B795F795E7959F5FC1F7FE2B880FE8
:0E124000911D9695879597F90895F894FFCF24
:10124E00010000000000000200000000E9020000A2
:08125E00000024012F013A01F8
:00000001FF
